{
  "_format": "hh-sol-artifact-1",
  "contractName": "Banana",
  "sourceName": "contracts/Banana.sol",
  "abi": [
    {
      "inputs": [],
      "payable": false,
      "stateMutability": "nonpayable",
      "type": "constructor"
    },
    {
      "anonymous": false,
      "inputs": [
        {
          "indexed": true,
          "internalType": "address",
          "name": "owner",
          "type": "address"
        },
        {
          "indexed": true,
          "internalType": "address",
          "name": "spender",
          "type": "address"
        },
        {
          "indexed": false,
          "internalType": "uint256",
          "name": "value",
          "type": "uint256"
        }
      ],
      "name": "Approval",
      "type": "event"
    },
    {
      "anonymous": false,
      "inputs": [
        {
          "indexed": false,
          "internalType": "uint256",
          "name": "tokensSwapped",
          "type": "uint256"
        },
        {
          "indexed": false,
          "internalType": "uint256",
          "name": "teamETH",
          "type": "uint256"
        },
        {
          "indexed": false,
          "internalType": "uint256",
          "name": "revETH",
          "type": "uint256"
        },
        {
          "indexed": false,
          "internalType": "uint256",
          "name": "TreasuryETH",
          "type": "uint256"
        }
      ],
      "name": "SwapAndLiquify",
      "type": "event"
    },
    {
      "anonymous": false,
      "inputs": [
        {
          "indexed": true,
          "internalType": "address",
          "name": "from",
          "type": "address"
        },
        {
          "indexed": true,
          "internalType": "address",
          "name": "to",
          "type": "address"
        },
        {
          "indexed": false,
          "internalType": "uint256",
          "name": "value",
          "type": "uint256"
        }
      ],
      "name": "Transfer",
      "type": "event"
    },
    {
      "constant": true,
      "inputs": [
        {
          "internalType": "address",
          "name": "owner",
          "type": "address"
        },
        {
          "internalType": "address",
          "name": "spender",
          "type": "address"
        }
      ],
      "name": "allowance",
      "outputs": [
        {
          "internalType": "uint256",
          "name": "",
          "type": "uint256"
        }
      ],
      "payable": false,
      "stateMutability": "view",
      "type": "function"
    },
    {
      "constant": false,
      "inputs": [
        {
          "internalType": "address",
          "name": "spender",
          "type": "address"
        },
        {
          "internalType": "uint256",
          "name": "amount",
          "type": "uint256"
        }
      ],
      "name": "approve",
      "outputs": [],
      "payable": false,
      "stateMutability": "nonpayable",
      "type": "function"
    },
    {
      "constant": true,
      "inputs": [
        {
          "internalType": "address",
          "name": "account",
          "type": "address"
        }
      ],
      "name": "balanceOf",
      "outputs": [
        {
          "internalType": "uint256",
          "name": "",
          "type": "uint256"
        }
      ],
      "payable": false,
      "stateMutability": "view",
      "type": "function"
    },
    {
      "constant": true,
      "inputs": [],
      "name": "buyTotalFees",
      "outputs": [
        {
          "internalType": "uint8",
          "name": "",
          "type": "uint8"
        }
      ],
      "payable": false,
      "stateMutability": "view",
      "type": "function"
    },
    {
      "constant": true,
      "inputs": [],
      "name": "decimals",
      "outputs": [
        {
          "internalType": "uint8",
          "name": "",
          "type": "uint8"
        }
      ],
      "payable": false,
      "stateMutability": "pure",
      "type": "function"
    },
    {
      "constant": true,
      "inputs": [
        {
          "internalType": "address",
          "name": "account",
          "type": "address"
        }
      ],
      "name": "excludedFromFee",
      "outputs": [
        {
          "internalType": "bool",
          "name": "",
          "type": "bool"
        }
      ],
      "payable": false,
      "stateMutability": "view",
      "type": "function"
    },
    {
      "constant": true,
      "inputs": [],
      "name": "limitsInEffect",
      "outputs": [
        {
          "internalType": "bool",
          "name": "",
          "type": "bool"
        }
      ],
      "payable": false,
      "stateMutability": "view",
      "type": "function"
    },
    {
      "constant": true,
      "inputs": [],
      "name": "maxTransactionAmount",
      "outputs": [
        {
          "internalType": "uint256",
          "name": "",
          "type": "uint256"
        }
      ],
      "payable": false,
      "stateMutability": "view",
      "type": "function"
    },
    {
      "constant": true,
      "inputs": [],
      "name": "maxWallet",
      "outputs": [
        {
          "internalType": "uint256",
          "name": "",
          "type": "uint256"
        }
      ],
      "payable": false,
      "stateMutability": "view",
      "type": "function"
    },
    {
      "constant": true,
      "inputs": [],
      "name": "name",
      "outputs": [
        {
          "internalType": "string",
          "name": "",
          "type": "string"
        }
      ],
      "payable": false,
      "stateMutability": "pure",
      "type": "function"
    },
    {
      "constant": true,
      "inputs": [],
      "name": "owner",
      "outputs": [
        {
          "internalType": "address",
          "name": "",
          "type": "address"
        }
      ],
      "payable": false,
      "stateMutability": "view",
      "type": "function"
    },
    {
      "constant": false,
      "inputs": [],
      "name": "removeLimits",
      "outputs": [],
      "payable": false,
      "stateMutability": "nonpayable",
      "type": "function"
    },
    {
      "constant": false,
      "inputs": [],
      "name": "renounceOwnership",
      "outputs": [],
      "payable": false,
      "stateMutability": "nonpayable",
      "type": "function"
    },
    {
      "constant": true,
      "inputs": [],
      "name": "revFee",
      "outputs": [
        {
          "internalType": "uint8",
          "name": "",
          "type": "uint8"
        }
      ],
      "payable": false,
      "stateMutability": "view",
      "type": "function"
    },
    {
      "constant": true,
      "inputs": [],
      "name": "sellTotalFees",
      "outputs": [
        {
          "internalType": "uint8",
          "name": "",
          "type": "uint8"
        }
      ],
      "payable": false,
      "stateMutability": "view",
      "type": "function"
    },
    {
      "constant": false,
      "inputs": [
        {
          "internalType": "address",
          "name": "pair",
          "type": "address"
        },
        {
          "internalType": "bool",
          "name": "value",
          "type": "bool"
        }
      ],
      "name": "setAutomatedMarketMakerPair",
      "outputs": [],
      "payable": false,
      "stateMutability": "nonpayable",
      "type": "function"
    },
    {
      "constant": false,
      "inputs": [
        {
          "internalType": "uint8",
          "name": "_RevFee",
          "type": "uint8"
        },
        {
          "internalType": "uint8",
          "name": "_TreasuryFee",
          "type": "uint8"
        },
        {
          "internalType": "uint8",
          "name": "_teamFee",
          "type": "uint8"
        }
      ],
      "name": "setDistributionFees",
      "outputs": [],
      "payable": false,
      "stateMutability": "nonpayable",
      "type": "function"
    },
    {
      "constant": false,
      "inputs": [
        {
          "internalType": "address",
          "name": "account",
          "type": "address"
        },
        {
          "internalType": "bool",
          "name": "excluded",
          "type": "bool"
        }
      ],
      "name": "setExcludedFromFees",
      "outputs": [],
      "payable": false,
      "stateMutability": "nonpayable",
      "type": "function"
    },
    {
      "constant": false,
      "inputs": [
        {
          "internalType": "address",
          "name": "account",
          "type": "address"
        },
        {
          "internalType": "bool",
          "name": "excluded",
          "type": "bool"
        }
      ],
      "name": "setExcludedFromMaxTransaction",
      "outputs": [],
      "payable": false,
      "stateMutability": "nonpayable",
      "type": "function"
    },
    {
      "constant": false,
      "inputs": [
        {
          "internalType": "uint8",
          "name": "_buyTotalFees",
          "type": "uint8"
        },
        {
          "internalType": "uint8",
          "name": "_sellTotalFees",
          "type": "uint8"
        }
      ],
      "name": "setFees",
      "outputs": [],
      "payable": false,
      "stateMutability": "nonpayable",
      "type": "function"
    },
    {
      "constant": false,
      "inputs": [
        {
          "internalType": "uint256",
          "name": "newMaxTx",
          "type": "uint256"
        }
      ],
      "name": "setMaxTxnAmount",
      "outputs": [],
      "payable": false,
      "stateMutability": "nonpayable",
      "type": "function"
    },
    {
      "constant": false,
      "inputs": [
        {
          "internalType": "uint256",
          "name": "newMax",
          "type": "uint256"
        }
      ],
      "name": "setMaxTxnAndWallet",
      "outputs": [],
      "payable": false,
      "stateMutability": "nonpayable",
      "type": "function"
    },
    {
      "constant": false,
      "inputs": [
        {
          "internalType": "uint256",
          "name": "newMaxWallet",
          "type": "uint256"
        }
      ],
      "name": "setMaxWalletAmount",
      "outputs": [],
      "payable": false,
      "stateMutability": "nonpayable",
      "type": "function"
    },
    {
      "constant": false,
      "inputs": [
        {
          "internalType": "uint256",
          "name": "newSwapAmount",
          "type": "uint256"
        }
      ],
      "name": "setSwapAtAmount",
      "outputs": [],
      "payable": false,
      "stateMutability": "nonpayable",
      "type": "function"
    },
    {
      "constant": true,
      "inputs": [],
      "name": "swapTokensAtAmount",
      "outputs": [
        {
          "internalType": "uint256",
          "name": "",
          "type": "uint256"
        }
      ],
      "payable": false,
      "stateMutability": "view",
      "type": "function"
    },
    {
      "constant": true,
      "inputs": [],
      "name": "symbol",
      "outputs": [
        {
          "internalType": "string",
          "name": "",
          "type": "string"
        }
      ],
      "payable": false,
      "stateMutability": "pure",
      "type": "function"
    },
    {
      "constant": true,
      "inputs": [],
      "name": "teamFee",
      "outputs": [
        {
          "internalType": "uint8",
          "name": "",
          "type": "uint8"
        }
      ],
      "payable": false,
      "stateMutability": "view",
      "type": "function"
    },
    {
      "constant": true,
      "inputs": [],
      "name": "totalSupply",
      "outputs": [
        {
          "internalType": "uint256",
          "name": "",
          "type": "uint256"
        }
      ],
      "payable": false,
      "stateMutability": "pure",
      "type": "function"
    },
    {
      "constant": false,
      "inputs": [
        {
          "internalType": "address",
          "name": "recipient",
          "type": "address"
        },
        {
          "internalType": "uint256",
          "name": "amount",
          "type": "uint256"
        }
      ],
      "name": "transfer",
      "outputs": [],
      "payable": false,
      "stateMutability": "nonpayable",
      "type": "function"
    },
    {
      "constant": false,
      "inputs": [
        {
          "internalType": "address",
          "name": "sender",
          "type": "address"
        },
        {
          "internalType": "address",
          "name": "recipient",
          "type": "address"
        },
        {
          "internalType": "uint256",
          "name": "amount",
          "type": "uint256"
        }
      ],
      "name": "transferFrom",
      "outputs": [],
      "payable": false,
      "stateMutability": "nonpayable",
      "type": "function"
    },
    {
      "constant": true,
      "inputs": [],
      "name": "treasuryFee",
      "outputs": [
        {
          "internalType": "uint8",
          "name": "",
          "type": "uint8"
        }
      ],
      "payable": false,
      "stateMutability": "view",
      "type": "function"
    },
    {
      "constant": true,
      "inputs": [],
      "name": "uniswapV2Pair",
      "outputs": [
        {
          "internalType": "address",
          "name": "",
          "type": "address"
        }
      ],
      "payable": false,
      "stateMutability": "view",
      "type": "function"
    },
    {
      "constant": true,
      "inputs": [],
      "name": "uniswapV2Router",
      "outputs": [
        {
          "internalType": "contract IUniswapV2Router02",
          "name": "",
          "type": "address"
        }
      ],
      "payable": false,
      "stateMutability": "view",
      "type": "function"
    },
    {
      "constant": false,
      "inputs": [],
      "name": "unleashTheBanana",
      "outputs": [],
      "payable": true,
      "stateMutability": "payable",
      "type": "function"
    },
    {
      "constant": false,
      "inputs": [
        {
          "internalType": "address",
          "name": "newAddress",
          "type": "address"
        }
      ],
      "name": "updateRevWallet",
      "outputs": [],
      "payable": false,
      "stateMutability": "nonpayable",
      "type": "function"
    },
    {
      "constant": false,
      "inputs": [
        {
          "internalType": "address",
          "name": "newAddress",
          "type": "address"
        }
      ],
      "name": "updateTeamWallet",
      "outputs": [],
      "payable": false,
      "stateMutability": "nonpayable",
      "type": "function"
    },
    {
      "constant": false,
      "inputs": [
        {
          "internalType": "address",
          "name": "newAddress",
          "type": "address"
        }
      ],
      "name": "updateTreasuryWallet",
      "outputs": [],
      "payable": false,
      "stateMutability": "nonpayable",
      "type": "function"
    },
    {
      "constant": false,
      "inputs": [
        {
          "internalType": "address",
          "name": "addr",
          "type": "address"
        }
      ],
      "name": "withdrawStuckETH",
      "outputs": [],
      "payable": false,
      "stateMutability": "nonpayable",
      "type": "function"
    },
    {
      "constant": false,
      "inputs": [
        {
          "internalType": "address",
          "name": "token",
          "type": "address"
        },
        {
          "internalType": "address",
          "name": "to",
          "type": "address"
        }
      ],
      "name": "withdrawStuckToken",
      "outputs": [],
      "payable": false,
      "stateMutability": "nonpayable",
      "type": "function"
    }
  ],
  "bytecode": "0x608060405269152d02c7e14af680000060018190556002556127106a295be96e640669720000000460035560001960045560058054739ef0f6f745b79949bbdde900013fca359bcfd59a6001600160a01b03199182161790915560068054737d35f092bad40cbaeec9ea518c2daa3335076e8f90831617905560078054600160d01b7337aab97476ba8dc785476611006fd5dda4eed66b919093161760ff60a01b1916600560a31b1760ff60a81b1916600560ab1b1760ff60b01b1916601960b11b1760ff60b81b1916601960b81b1760ff60c01b1916601960c01b1760ff60d01b1916919091179055348015620000f657600080fd5b50600080546001600160a01b031916331790556040805163c45a015560e01b81529051737a250d5630b4cf539739df2c5dacb4c659f2488d9163c45a0155916004808301926020929190829003018186803b1580156200015557600080fd5b505afa1580156200016a573d6000803e3d6000fd5b505050506040513d60208110156200018157600080fd5b5051604080516364e329cb60e11b815230600482015273c02aaa39b223fe8d0a0e5c4f27ead9083c756cc2602482015290516001600160a01b039092169163c9c65396916044808201926020929091908290030181600087803b158015620001e857600080fd5b505af1158015620001fd573d6000803e3d6000fd5b505050506040513d60208110156200021457600080fd5b5051600d80546001600160a01b0319166001600160a01b039283161790819055166000908152600c60205260409020805460ff191660011790557349af319f1243613e575c2df6cbd9988400675cd0620002826200027162000dfb565b60016001600160e01b0362000e0a16565b620002983060016001600160e01b0362000e0a16565b620002b061dead60016001600160e01b0362000e0a16565b600754620002d2906001600160a01b031660016001600160e01b0362000e0a16565b600554620002f4906001600160a01b031660016001600160e01b0362000e0a16565b60065462000316906001600160a01b031660016001600160e01b0362000e0a16565b6200034073fc932f4a6e3aaf6dc4fefdaf89d3602c5581f58d60016001600160e01b0362000e0a16565b6200036a73c4a0c91ca415887174b63d76c132284b2e7ff8b660016001600160e01b0362000e0a16565b6200039473f7a3285664bdfaea0b52b0eca30cdc99c86ec98b60016001600160e01b0362000e0a16565b620003be731c0435144ec9e27a0adbd51732849191fd898f9260016001600160e01b0362000e0a16565b620003e87337af2967fb932b5291efe053ba98c78b9b540e6060016001600160e01b0362000e0a16565b620004127330af1239a4995e8be511176981e66ec39c29e89f60016001600160e01b0362000e0a16565b6200043c7374b29e90005d29f1fa9069697ff87ea8e33f058060016001600160e01b0362000e0a16565b62000466731ac69afabb3d4416da019369980921002e04deaa60016001600160e01b0362000e0a16565b62000490733846180ac8fc4c86cc0586f3d670d543d1a2cb1f60016001600160e01b0362000e0a16565b620004ba732e67db3906d7765ff6a663cf0b47ed29326903e160016001600160e01b0362000e0a16565b620004e47364568fb777d17d1fce7bb02e845b087fb23aa01b60016001600160e01b0362000e0a16565b6200050c620004fb6001600160e01b0362000dfb16565b60016001600160e01b0362000e9416565b62000536737a250d5630b4cf539739df2c5dacb4c659f2488d60016001600160e01b0362000e9416565b6200054c3060016001600160e01b0362000e9416565b6200056461dead60016001600160e01b0362000e9416565b600d5462000586906001600160a01b031660016001600160e01b0362000e9416565b6200059c8160016001600160e01b0362000e9416565b600754620005be906001600160a01b031660016001600160e01b0362000e9416565b600554620005e0906001600160a01b031660016001600160e01b0362000e9416565b60065462000602906001600160a01b031660016001600160e01b0362000e9416565b6200062c73c4a0c91ca415887174b63d76c132284b2e7ff8b660016001600160e01b0362000e9416565b6200065673f7a3285664bdfaea0b52b0eca30cdc99c86ec98b60016001600160e01b0362000e9416565b62000680731c0435144ec9e27a0adbd51732849191fd898f9260016001600160e01b0362000e9416565b620006aa7337af2967fb932b5291efe053ba98c78b9b540e6060016001600160e01b0362000e9416565b620006d47330af1239a4995e8be511176981e66ec39c29e89f60016001600160e01b0362000e9416565b620006fe7374b29e90005d29f1fa9069697ff87ea8e33f058060016001600160e01b0362000e9416565b62000728731ac69afabb3d4416da019369980921002e04deaa60016001600160e01b0362000e9416565b62000752733846180ac8fc4c86cc0586f3d670d543d1a2cb1f60016001600160e01b0362000e9416565b6200077c732e67db3906d7765ff6a663cf0b47ed29326903e160016001600160e01b0362000e9416565b620007a67364568fb777d17d1fce7bb02e845b087fb23aa01b60016001600160e01b0362000e9416565b68056bc75e2d6310000060018190556002553060008181526008602090815260408083206969e10de76676d080000090819055815190815290516000805160206200353c833981519152929181900390910190a36001600160a01b0381166000818152600860209081526040808320691969368974c05b00000090819055815190815290516000805160206200353c833981519152929181900390910190a3600680546001600160a01b0390811660009081526008602090815260408083206a0547047e36bf483b800000905593549092168082528382205484519081529351909391926000805160206200353c833981519152928290030190a373fc932f4a6e3aaf6dc4fefdaf89d3602c5581f58d6000818152600860209081526a01a784379d99db420000007faaf8716ca48ee978d6cbadbf31d343c98d982f363568bcad9eaca1453e3e0baa81905560408051918252516000805160206200353c833981519152929181900390910190a373c4a0c91ca415887174b63d76c132284b2e7ff8b660008181526008602090815269152d02c7e14af68000007fda0013edfc2df818e23568521114bc2cf865cac1209864155a4ee36159c1232981905560408051918252516000805160206200353c833981519152929181900390910190a373f7a3285664bdfaea0b52b0eca30cdc99c86ec98b60008181526008602090815269152d02c7e14af68000007f146570bd916ddff20f7fcb0e172a4d26fc9da6c4bef6a7a2a66214fda2f5617c81905560408051918252516000805160206200353c833981519152929181900390910190a3731c0435144ec9e27a0adbd51732849191fd898f9260008181526008602090815269152d02c7e14af68000007f351577eb5b7575a0d6b58b31bb1a8d103ed3d6080716516a9cf4af428f53b14d81905560408051918252516000805160206200353c833981519152929181900390910190a37337af2967fb932b5291efe053ba98c78b9b540e6060008181526008602090815269152d02c7e14af68000007f86c02c6935239a9095fc59249a49a7e6d9d62399be97d0ffe9053a5d2775dae981905560408051918252516000805160206200353c833981519152929181900390910190a37330af1239a4995e8be511176981e66ec39c29e89f60008181526008602090815269152d02c7e14af68000007fe0dd62d2b3ff4bf6520d8c547c5b11bca770062eac5d7166125418e96b4cd05981905560408051918252516000805160206200353c833981519152929181900390910190a37374b29e90005d29f1fa9069697ff87ea8e33f058060008181526008602090815269152d02c7e14af68000007f38016fc755ef5a08184f8cace6594a4261d2599dc07ddcc7d6a9231213c9d01281905560408051918252516000805160206200353c833981519152929181900390910190a3731ac69afabb3d4416da019369980921002e04deaa60008181526008602090815269152d02c7e14af68000007f8d2a36e20a9091ade2c927a859c132bea6232971b599fda18e83891f33ad26a181905560408051918252516000805160206200353c833981519152929181900390910190a3733846180ac8fc4c86cc0586f3d670d543d1a2cb1f60008181526008602090815269152d02c7e14af68000007f5f8345f8366d84db077665bc28dd8e03b0b497a0ec2edb545bc81c2a3345e9c081905560408051918252516000805160206200353c833981519152929181900390910190a3732e67db3906d7765ff6a663cf0b47ed29326903e160008181526008602090815269152d02c7e14af68000007f796092d0dcef5be6b24d4c2927c1e0d57c52c0e5a41c975190db474068de947881905560408051918252516000805160206200353c833981519152929181900390910190a37364568fb777d17d1fce7bb02e845b087fb23aa01b60008181526008602090815269152d02c7e14af68000007f974865edcd6daadb0e913c89227151c766633a3e77f481079f2f020ba7cd7c3f81905560408051918252516000805160206200353c833981519152929181900390910190a360408051631352746960e11b8152306004820152905173fc932f4a6e3aaf6dc4fefdaf89d3602c5581f58d916326a4e8d291602480830192600092919082900301818387803b15801562000ddb57600080fd5b505af115801562000df0573d6000803e3d6000fd5b505050505062000f1e565b6000546001600160a01b031690565b3362000e1e6001600160e01b0362000dfb16565b6001600160a01b03161462000e69576040805162461bcd60e51b815260206004820181905260248201526000805160206200351c833981519152604482015290519081900360640190fd5b6001600160a01b03919091166000908152600a60205260409020805460ff1916911515919091179055565b3362000ea86001600160e01b0362000dfb16565b6001600160a01b03161462000ef3576040805162461bcd60e51b815260206004820181905260248201526000805160206200351c833981519152604482015290519081900360640190fd5b6001600160a01b03919091166000908152600b60205260409020805460ff1916911515919091179055565b6125ee8062000f2e6000396000f3fe6080604052600436106102305760003560e01c806374010ece1161012e578063bc205ad3116100ab578063d7c94efd1161006f578063d7c94efd14610821578063d85ba06314610836578063dd62ed3e1461084b578063e2f4560514610886578063f8b45b051461089b57610230565b8063bc205ad31461075f578063c144b53e1461079a578063c8c8ebe4146107c4578063cc32d176146107d9578063d201b01e146107ee57610230565b80638da5cb5b116100f25780638da5cb5b1461068e57806395d89b41146106a35780639a7a23d6146106b8578063a9059cbb146106f3578063adfa29e51461072c57610230565b806374010ece146105b6578063751039fc146105e05780637cb332bb146105f5578063809d458d1461062857806385ecafd71461065b57610230565b806349bd5a5e116101bc57806366650dae1161018057806366650dae146105165780636a486a8e146105515780636fdb6f391461056657806370a082311461056e578063715018a6146105a157610230565b806349bd5a5e1461043e5780634a62bb65146104535780634fcd24461461047c578063590ffdce146104b15780636402511e146104ec57610230565b806321d37e391161020357806321d37e391461035257806323b872dd1461037d57806327a14fc2146103c0578063313ce567146103ea5780633c090c46146103ff57610230565b806306fdde0314610235578063095ea7b3146102bf5780631694505e146102fa57806318160ddd1461032b575b600080fd5b34801561024157600080fd5b5061024a6108b0565b6040805160208082528351818301528351919283929083019185019080838360005b8381101561028457818101518382015260200161026c565b50505050905090810190601f1680156102b15780820380516001836020036101000a031916815260200191505b509250505060405180910390f35b3480156102cb57600080fd5b506102f8600480360360408110156102e257600080fd5b506001600160a01b0381351690602001356108d0565b005b34801561030657600080fd5b5061030f6108df565b604080516001600160a01b039092168252519081900360200190f35b34801561033757600080fd5b506103406108f7565b60408051918252519081900360200190f35b34801561035e57600080fd5b50610367610906565b6040805160ff9092168252519081900360200190f35b34801561038957600080fd5b506102f8600480360360608110156103a057600080fd5b506001600160a01b03813581169160208101359091169060400135610916565b3480156103cc57600080fd5b506102f8600480360360208110156103e357600080fd5b5035610997565b3480156103f657600080fd5b50610367610a5b565b34801561040b57600080fd5b506102f86004803603606081101561042257600080fd5b5060ff8135811691602081013582169160409091013516610a60565b34801561044a57600080fd5b5061030f610b53565b34801561045f57600080fd5b50610468610b62565b604080519115158252519081900360200190f35b34801561048857600080fd5b506102f86004803603604081101561049f57600080fd5b5060ff81358116916020013516610b72565b3480156104bd57600080fd5b506102f8600480360360408110156104d457600080fd5b506001600160a01b0381351690602001351515610c7c565b3480156104f857600080fd5b506102f86004803603602081101561050f57600080fd5b5035610cf9565b34801561052257600080fd5b506102f86004803603604081101561053957600080fd5b506001600160a01b0381351690602001351515610df6565b34801561055d57600080fd5b50610367610e73565b6102f8610e83565b34801561057a57600080fd5b506103406004803603602081101561059157600080fd5b50356001600160a01b031661101f565b3480156105ad57600080fd5b506102f861103a565b3480156105c257600080fd5b506102f8600480360360208110156105d957600080fd5b503561109e565b3480156105ec57600080fd5b506102f8611162565b34801561060157600080fd5b506102f86004803603602081101561061857600080fd5b50356001600160a01b03166111c3565b34801561063457600080fd5b506102f86004803603602081101561064b57600080fd5b50356001600160a01b031661128b565b34801561066757600080fd5b506104686004803603602081101561067e57600080fd5b50356001600160a01b0316611353565b34801561069a57600080fd5b5061030f611371565b3480156106af57600080fd5b5061024a611380565b3480156106c457600080fd5b506102f8600480360360408110156106db57600080fd5b506001600160a01b03813516906020013515156113a0565b3480156106ff57600080fd5b506102f86004803603604081101561071657600080fd5b506001600160a01b038135169060200135611480565b34801561073857600080fd5b506102f86004803603602081101561074f57600080fd5b50356001600160a01b031661148b565b34801561076b57600080fd5b506102f86004803603604081101561078257600080fd5b506001600160a01b0381358116916020013516611553565b3480156107a657600080fd5b506102f8600480360360208110156107bd57600080fd5b503561168d565b3480156107d057600080fd5b50610340611756565b3480156107e557600080fd5b5061036761175c565b3480156107fa57600080fd5b506102f86004803603602081101561081157600080fd5b50356001600160a01b031661176c565b34801561082d57600080fd5b506103676118a5565b34801561084257600080fd5b506103676118b5565b34801561085757600080fd5b506103406004803603604081101561086e57600080fd5b506001600160a01b03813581169160200135166118c5565b34801561089257600080fd5b506103406118f0565b3480156108a757600080fd5b506103406118f6565b60408051808201909152600681526542616e616e6160d01b602082015290565b6108db3383836118fc565b5050565b737a250d5630b4cf539739df2c5dacb4c659f2488d81565b6a084595161401484a00000090565b600754600160b01b900460ff1681565b6109218383836119e8565b6001600160a01b0383166000908152600960209081526040808320338452909152902054818110156109845760405162461bcd60e51b81526004018080602001828103825260288152602001806124306028913960400191505060405180910390fd5b61099184338484036118fc565b50505050565b336109a0611371565b6001600160a01b0316146109e9576040805162461bcd60e51b81526020600482018190526024820152600080516020612458833981519152604482015290519081900360640190fd5b670de0b6b3a7640000620186a06109fe6108f7565b81610a0557fe5b0481610a0d57fe5b04811015610a4c5760405162461bcd60e51b81526004018080602001828103825260278152602001806123a86027913960400191505060405180910390fd5b670de0b6b3a764000002600255565b601290565b33610a69611371565b6001600160a01b031614610ab2576040805162461bcd60e51b81526020600482018190526024820152600080516020612458833981519152604482015290519081900360640190fd5b6007805460ff60b01b1916600160b01b60ff86811682029290921760ff60b81b1916600160b81b86841681029190911760ff60c01b1916600160c01b86851681029190911794859055840483169084048316919093048216019190910116606414610b4e5760405162461bcd60e51b81526004018080602001828103825260258152602001806124786025913960400191505060405180910390fd5b505050565b600d546001600160a01b031681565b600754600160d01b900460ff1681565b33610b7b611371565b6001600160a01b031614610bc4576040805162461bcd60e51b81526020600482018190526024820152600080516020612458833981519152604482015290519081900360640190fd5b60288260ff161115610c075760405162461bcd60e51b815260040180806020018281038252602981526020018061249d6029913960400191505060405180910390fd5b60288160ff161115610c4a5760405162461bcd60e51b815260040180806020018281038252602a8152602001806123cf602a913960400191505060405180910390fd5b6007805460ff928316600160a81b0260ff60a81b1994909316600160a01b0260ff60a01b199091161792909216179055565b33610c85611371565b6001600160a01b031614610cce576040805162461bcd60e51b81526020600482018190526024820152600080516020612458833981519152604482015290519081900360640190fd5b6001600160a01b03919091166000908152600a60205260409020805460ff1916911515919091179055565b33610d02611371565b6001600160a01b031614610d4b576040805162461bcd60e51b81526020600482018190526024820152600080516020612458833981519152604482015290519081900360640190fd5b620186a0610d576108f7565b81610d5e57fe5b04811015610d9d5760405162461bcd60e51b815260040180806020018281038252603581526020018061234d6035913960400191505060405180910390fd5b6103e8610da86108f7565b60050281610db257fe5b04811115610df15760405162461bcd60e51b81526004018080602001828103825260348152602001806125866034913960400191505060405180910390fd5b600355565b33610dff611371565b6001600160a01b031614610e48576040805162461bcd60e51b81526020600482018190526024820152600080516020612458833981519152604482015290519081900360640190fd5b6001600160a01b03919091166000908152600b60205260409020805460ff1916911515919091179055565b600754600160a81b900460ff1681565b33610e8c611371565b6001600160a01b031614610ed5576040805162461bcd60e51b81526020600482018190526024820152600080516020612458833981519152604482015290519081900360640190fd5b600754600160d81b900460ff1615610f27576040805162461bcd60e51b815260206004820152601060248201526f105b1c9958591e481b185d5b98da195960821b604482015290519081900360640190fd5b610f4830737a250d5630b4cf539739df2c5dacb4c659f2488d6004546118fc565b3060008181526008602052604080822054600754825163f305d71960e01b8152600481019590955260248501919091526044840183905260648401929092526001600160a01b0390911660848301524260a483015251737a250d5630b4cf539739df2c5dacb4c659f2488d9163f305d71991349160c48082019260609290919082900301818588803b158015610fdd57600080fd5b505af1158015610ff1573d6000803e3d6000fd5b50505050506040513d606081101561100857600080fd5b50506007805460ff60d81b1916600160d81b179055565b6001600160a01b031660009081526008602052604090205490565b33611043611371565b6001600160a01b03161461108c576040805162461bcd60e51b81526020600482018190526024820152600080516020612458833981519152604482015290519081900360640190fd5b600080546001600160a01b0319169055565b336110a7611371565b6001600160a01b0316146110f0576040805162461bcd60e51b81526020600482018190526024820152600080516020612458833981519152604482015290519081900360640190fd5b670de0b6b3a7640000620186a06111056108f7565b8161110c57fe5b048161111457fe5b048110156111535760405162461bcd60e51b815260040180806020018281038252602c81526020018061255a602c913960400191505060405180910390fd5b670de0b6b3a764000002600155565b3361116b611371565b6001600160a01b0316146111b4576040805162461bcd60e51b81526020600482018190526024820152600080516020612458833981519152604482015290519081900360640190fd5b6007805460ff60d01b19169055565b336111cc611371565b6001600160a01b031614611215576040805162461bcd60e51b81526020600482018190526024820152600080516020612458833981519152604482015290519081900360640190fd5b6001600160a01b038116611269576040805162461bcd60e51b8152602060048201526016602482015275416464726573732063616e6e6f74206265207a65726f60501b604482015290519081900360640190fd5b600780546001600160a01b0319166001600160a01b0392909216919091179055565b33611294611371565b6001600160a01b0316146112dd576040805162461bcd60e51b81526020600482018190526024820152600080516020612458833981519152604482015290519081900360640190fd5b6001600160a01b038116611331576040805162461bcd60e51b8152602060048201526016602482015275416464726573732063616e6e6f74206265207a65726f60501b604482015290519081900360640190fd5b600680546001600160a01b0319166001600160a01b0392909216919091179055565b6001600160a01b03166000908152600a602052604090205460ff1690565b6000546001600160a01b031690565b60408051808201909152600681526542414e414e4160d01b602082015290565b336113a9611371565b6001600160a01b0316146113f2576040805162461bcd60e51b81526020600482018190526024820152600080516020612458833981519152604482015290519081900360640190fd5b600d546001600160a01b0383811691161415611455576040805162461bcd60e51b815260206004820152601a60248201527f54686520706169722063616e6e6f742062652072656d6f766564000000000000604482015290519081900360640190fd5b6001600160a01b03919091166000908152600c60205260409020805460ff1916911515919091179055565b6108db3383836119e8565b33611494611371565b6001600160a01b0316146114dd576040805162461bcd60e51b81526020600482018190526024820152600080516020612458833981519152604482015290519081900360640190fd5b6001600160a01b038116611531576040805162461bcd60e51b8152602060048201526016602482015275416464726573732063616e6e6f74206265207a65726f60501b604482015290519081900360640190fd5b600580546001600160a01b0319166001600160a01b0392909216919091179055565b3361155c611371565b6001600160a01b0316146115a5576040805162461bcd60e51b81526020600482018190526024820152600080516020612458833981519152604482015290519081900360640190fd5b604080516370a0823160e01b815230600482015290516000916001600160a01b038516916370a0823191602480820192602092909190829003018186803b1580156115ef57600080fd5b505afa158015611603573d6000803e3d6000fd5b505050506040513d602081101561161957600080fd5b50516040805163a9059cbb60e01b81526001600160a01b0385811660048301526024820184905291519293509085169163a9059cbb9160448082019260009290919082900301818387803b15801561167057600080fd5b505af1158015611684573d6000803e3d6000fd5b50505050505050565b33611696611371565b6001600160a01b0316146116df576040805162461bcd60e51b81526020600482018190526024820152600080516020612458833981519152604482015290519081900360640190fd5b670de0b6b3a7640000620186a06116f46108f7565b816116fb57fe5b048161170357fe5b048110156117425760405162461bcd60e51b81526004018080602001828103825260378152602001806123f96037913960400191505060405180910390fd5b670de0b6b3a7640000026001819055600255565b60015481565b600754600160b81b900460ff1681565b33611775611371565b6001600160a01b0316146117be576040805162461bcd60e51b81526020600482018190526024820152600080516020612458833981519152604482015290519081900360640190fd5b6001600160a01b03811661180b576040805162461bcd60e51b815260206004820152600f60248201526e496e76616c6964206164647265737360881b604482015290519081900360640190fd5b6040516000906001600160a01b0383169047908381818185875af1925050503d8060008114611856576040519150601f19603f3d011682016040523d82523d6000602084013e61185b565b606091505b50509050806108db576040805162461bcd60e51b815260206004820152601160248201527015da5d1a191c985dd85b0819985a5b1959607a1b604482015290519081900360640190fd5b600754600160c01b900460ff1681565b600754600160a01b900460ff1681565b6001600160a01b03918216600090815260096020908152604080832093909416825291909152205490565b60035481565b60025481565b6001600160a01b0383166119415760405162461bcd60e51b81526004018080602001828103825260248152602001806124eb6024913960400191505060405180910390fd5b6001600160a01b0382166119865760405162461bcd60e51b815260040180806020018281038252602281526020018061232b6022913960400191505060405180910390fd5b6001600160a01b03808416600081815260096020908152604080832094871680845294825291829020859055815185815291517f8c5be1e5ebec7d5bd14f71427d1e84f3dd0314c0f7b2291e5b200ac8c7c3b9259281900390910190a3505050565b6001600160a01b038316611a2d5760405162461bcd60e51b81526004018080602001828103825260258152602001806124c66025913960400191505060405180910390fd5b6001600160a01b038216611a725760405162461bcd60e51b81526004018080602001828103825260238152602001806123086023913960400191505060405180910390fd5b600754600160d01b900460ff1615611d1857611a8c611371565b6001600160a01b0316836001600160a01b031614158015611ac65750611ab0611371565b6001600160a01b0316826001600160a01b031614155b8015611ada57506001600160a01b03821615155b8015611af157506001600160a01b03821661dead14155b8015611b075750600754600160c81b900460ff16155b15611d18576001600160a01b0383166000908152600c602052604090205460ff168015611b4d57506001600160a01b0382166000908152600b602052604090205460ff16155b15611bef57600154811115611b935760405162461bcd60e51b815260040180806020018281038252602581526020018061250f6025913960400191505060405180910390fd5b600254611b9f8361101f565b82011115611bea576040805162461bcd60e51b815260206004820152601360248201527213585e081dd85b1b195d08195e18d959591959606a1b604482015290519081900360640190fd5b611d18565b6001600160a01b0382166000908152600c602052604090205460ff168015611c3057506001600160a01b0383166000908152600b602052604090205460ff16155b15611c7657600154811115611bea5760405162461bcd60e51b81526004018080602001828103825260268152602001806125346026913960400191505060405180910390fd5b6001600160a01b0382166000908152600b602052604090205460ff16158015611cbc57506001600160a01b03831673fc932f4a6e3aaf6dc4fefdaf89d3602c5581f58d14155b15611d1857600254611ccd8361101f565b82011115611d18576040805162461bcd60e51b815260206004820152601360248201527213585e081dd85b1b195d08195e18d959591959606a1b604482015290519081900360640190fd5b6000600354611d263061101f565b10159050808015611d415750600754600160c81b900460ff16155b8015611d6657506001600160a01b0384166000908152600c602052604090205460ff16155b8015611d8b57506001600160a01b0384166000908152600a602052604090205460ff16155b8015611db057506001600160a01b0383166000908152600a602052604090205460ff16155b15611dde576007805460ff60c81b1916600160c81b179055611dd0612005565b6007805460ff60c81b191690555b6007546001600160a01b0385166000908152600a602052604090205460ff600160c81b909204821615911680611e2c57506001600160a01b0384166000908152600a602052604090205460ff165b15611e35575060005b60008115611f3f576001600160a01b0385166000908152600c602052604090205460ff168015611e705750600754600160a81b900460ff1615155b15611e90576007546103e890600160a81b900460ff168502049050611edf565b6001600160a01b0386166000908152600c602052604090205460ff168015611ec35750600754600160a01b900460ff1615155b15611edf576007546103e890600160a01b900460ff1685020490505b8015611f3f57306000818152600860209081526040918290208054850190558151848152915196849003966001600160a01b038a16927fddf252ad1be2c89b69c2b068fc378daa952ba7f163c4a11628f55a4df523b3ef92908290030190a35b6001600160a01b03861660009081526008602052604090205484811015611f975760405162461bcd60e51b81526004018080602001828103825260268152602001806123826026913960400191505060405180910390fd5b6001600160a01b0380881660008181526008602090815260408083208a87039055938a168083529184902080548a0190558351898152935191937fddf252ad1be2c89b69c2b068fc378daa952ba7f163c4a11628f55a4df523b3ef929081900390910190a350505050505050565b6003546000601482026120173061101f565b11156120265760035460140291505b6040805160028082526060808301845292602083019080388339019050509050308160008151811061205457fe5b60200260200101906001600160a01b031690816001600160a01b03168152505073c02aaa39b223fe8d0a0e5c4f27ead9083c756cc28160018151811061209657fe5b6001600160a01b0390921660209283029190910182015260405163791ac94760e01b8152600481018581526000602483018190523060648401819052426084850181905260a060448601908152875160a48701528751737a250d5630b4cf539739df2c5dacb4c659f2488d9763791ac947978c978b9695949093909260c49092019187810191028083838b5b8381101561213a578181015183820152602001612122565b505050509050019650505050505050600060405180830381600087803b15801561216357600080fd5b505af1158015612177573d6000803e3d6000fd5b50479250508115905061099157600754604051606460ff600160b01b84048116850282900493600160c01b81048216860283900493600160b81b8204909216860292909204916001600160a01b0316908390600081818185875af1925050503d8060008114612202576040519150601f19603f3d011682016040523d82523d6000602084013e612207565b606091505b50506006546040519197506001600160a01b0316908290600081818185875af1925050503d8060008114612257576040519150601f19603f3d011682016040523d82523d6000602084013e61225c565b606091505b50506005546040519197506001600160a01b0316908490600081818185875af1925050503d80600081146122ac576040519150601f19603f3d011682016040523d82523d6000602084013e6122b1565b606091505b505060408051898152602081018590528082018690526060810184905290519197507f93efcf28fbf701a930e0ad258987a2e4f08eb3aa99f9c02029e7ba049f69405f919081900360800190a15050505050505056fe45524332303a207472616e7366657220746f20746865207a65726f206164647265737345524332303a20617070726f766520746f20746865207a65726f20616464726573735377617020616d6f756e742063616e6e6f74206265206c6f776572207468616e20302e30303125206f662074686520737570706c7945524332303a207472616e7366657220616d6f756e7420657863656564732062616c616e636543616e6e6f7420736574206d61782077616c6c6574206c6f776572207468616e20302e3030312553656c6c2066656573206d757374206265206c657373207468616e206f7220657175616c20746f20342543616e6e6f7420736574206d6178207472616e73616374696f6e20616e642077616c6c6574206c6f776572207468616e20302e3030312545524332303a207472616e7366657220616d6f756e74206578636565647320616c6c6f77616e63654f776e61626c653a2063616c6c6572206973206e6f7420746865206f776e6572446973747269627574696f6e206861766520746f20626520657175616c20746f20313030254275792066656573206d757374206265206c657373207468616e206f7220657175616c20746f20342545524332303a207472616e736665722066726f6d20746865207a65726f206164647265737345524332303a20617070726f76652066726f6d20746865207a65726f2061646472657373427579207472616e7366657220616d6f756e74206578636565647320746865206d6178547853656c6c207472616e7366657220616d6f756e74206578636565647320746865206d6178547843616e6e6f7420736574206d6178207472616e73616374696f6e206c6f776572207468616e20302e303031255377617020616d6f756e742063616e6e6f7420626520686967686572207468616e20302e3525206f662074686520737570706c79a265627a7a72315820e5c993577fc7acf4b41bc4f2bda3e63f282e03a844a3cbb640240c8b98d54a0f64736f6c634300051000324f776e61626c653a2063616c6c6572206973206e6f7420746865206f776e6572ddf252ad1be2c89b69c2b068fc378daa952ba7f163c4a11628f55a4df523b3ef",
  "linkReferences": {},
  "deployedLinkReferences": {}
}