{
  "_format": "hh-sol-artifact-1",
  "contractName": "Ownable",
  "sourceName": "contracts/Banana.sol",
  "abi": [
    {
      "inputs": [],
      "payable": false,
      "stateMutability": "nonpayable",
      "type": "constructor"
    },
    {
      "constant": true,
      "inputs": [],
      "name": "owner",
      "outputs": [
        {
          "internalType": "address",
          "name": "",
          "type": "address"
        }
      ],
      "payable": false,
      "stateMutability": "view",
      "type": "function"
    },
    {
      "constant": false,
      "inputs": [],
      "name": "renounceOwnership",
      "outputs": [],
      "payable": false,
      "stateMutability": "nonpayable",
      "type": "function"
    }
  ],
  "bytecode": "0x608060405234801561001057600080fd5b50600080546001600160a01b03191633179055610118806100326000396000f3fe6080604052348015600f57600080fd5b506004361060325760003560e01c8063715018a61460375780638da5cb5b14603f575b600080fd5b603d6061565b005b604560d4565b604080516001600160a01b039092168252519081900360200190f35b33606860d4565b6001600160a01b03161460c2576040805162461bcd60e51b815260206004820181905260248201527f4f776e61626c653a2063616c6c6572206973206e6f7420746865206f776e6572604482015290519081900360640190fd5b600080546001600160a01b0319169055565b6000546001600160a01b03169056fea265627a7a72315820a3f1a7890a64f0a395631bc8077fe4412814710c76a70bb64f02a65b6c28cc8764736f6c63430005100032",
  "linkReferences": {},
  "deployedLinkReferences": {}
}